:1000000019C020C01FC01EC01DC01CC01BC01AC00C
:100010001AC018C017C016C015C014C013C012C033
:1000200011C010C00FC00EC00DC00CC00BC00AC064
:1000300009C008C011241FBECFEFCDBFDFE3DEBF74
:100040001AD028C0DDCF1F920F920FB60F92112445
:100050008F93EF93FF9388E080930704E0E0FAE04A
:10006000838581608387FF91EF918F910F900FBE01
:100070000F901F90189588E080930104E0E0FAE06B
:1000800081E082878FE080838AE596E086A397A34C
:080090007894FFCFF894FFCF34
:00000001FF
