:100000001BC022C021C020C01FC01EC01DC01CC0FC
:100010001BC01AC019C018C017C016C015C014C024
:1000200013C012C011C010C00FC00EC00DC00CC054
:100030000BC00AC00102030411241FBECFEFCDBFC5
:10004000DFE3DEBF27D069C0DBCF98E090930104E7
:10005000482F50E0440F551F141615069CF490E0ED
:10006000E0E0F4E088E087832AE03BE862E02150AA
:1000700030406040E1F700C09F5F292F30E0241737
:1000800035078CF385E196E125E0815090402040D2
:10009000E1F70895E6E3F0E0E491E33061F088E011
:1000A00080930104E0E0F4E08783A2ECB2EA1197C8
:1000B000F1F700C0F9CF80E090E013D0C1E0C80FA5
:1000C0006C2F80E090E015D08BEAC89F812D112421
:1000D0008695982F990F890FC81BCF5F8C2FB5DF9E
:1000E000FDCF03D0808199270895FC01E050FC4E9C
:1000F0000895262FAF93BF93E0E0F0E1328131FD08
:10010000FDCFDC01A050BC4E2C932DE924BF23E091
:0E01100020830196BF91AF910895F894FFCF20
:00000001FF
