:1000000019C020C01FC01EC01DC01CC01BC01AC00C
:1000100019C018C017C016C015C014C013C012C034
:1000200011C010C00FC00EC00DC00CC00BC00AC064
:1000300009C008C011241FBECFEFCDBFDFE3DEBF74
:1000400002D022C0DDCF80E880930104E0E0FAE036
:1000500080E781838BE0808380E090E480A791A794
:1000600080E090E882A793A780E090EC84A795A712
:10007000E0ECF1E088E0838788E8828789E0848784
:0C008000818781E08083FFCFF894FFCFE0
:00000001FF
