:1000000019C020C01FC01EC01DC01CC01BC01AC00C
:1000100019C018C017C016C015C014C013C012C034
:1000200011C010C00FC00EC00DC00CC00BC00AC064
:1000300009C008C011241FBECFEFCDBFDFE3DEBF74
:1000400019D06CC0DDCF8091080481FF04C088E026
:100050008093050403C088E080930604809108041F
:1000600082FF04C080E880930504089580E88093AF
:1000700006040895E0E0F4E088E58283168A88E8C3
:100080008183E0EAF0E083E0808381E0818381E4A2
:1000900080938006CEEF00E816E0F801C183FFE50B
:1000A0002AEE80E0F15020408040E1F700C00000DF
:1000B000CADFC150CE3D89F7CDED00E816E0F8016A
:1000C000C183FAE624E081E0F15020408040E1F76E
:1000D00000C0B9DFC150C13C91F7C0EC00E816E0A8
:1000E000F801C18382EB9BE70197F1F700C0ABDF1A
:1000F000C150C537A9F7C4E700E816E0F801C1838D
:10010000FAE624E081E0F15020408040E1F700C0B1
:100110009ADFC15098F710928106FFCFF894FFCF75
:00000001FF
