:1000000019C028C027C026C026C024C023C022C0D3
:1000100021C020C01FC01EC01DC01CC01BC01AC0F4
:1000200019C018C017C016C015C014C013C012C024
:1000300011C010C011241FBECFEFCDBFDFE3DEBF64
:100040002EE3A0E0BEE301C01D92A130B207E1F7AC
:1000500018D033C0D5CF1F920F920FB60F92112434
:100060008F938091290481FF03C081E08093003E3B
:1000700082E0809329048F910F900FBE0F901F9004
:10008000189582E080930104E0E2F4E082838189A4
:100090008960818B7894E0E0F4E092E08091003E0A
:1000A0008130E1F7978325ED38E082E02150304040
:0E00B0008040E1F71092003EF1CFF894FFCFB0
:00000001FF
