S00F0000457852455345542E73726563D5
S113000019C020C01FC01EC01DC01CC01BC01AC008
S113001019C018C017C016C015C014C013C012C030
S113002011C010C00FC00EC00DC00CC00BC00AC060
S113003009C008C011241FBECFEFCDBFDFE3DEBF70
S113004027D033C0DDCF98E090930104482F50E0CF
S1130050440F551F141615069CF490E0E0E0F4E0FC
S113006088E087832AE03BE862E02150304060402A
S1130070E1F700C09F5F292F30E0241735078CF388
S113008085E196E125E0815090402040E1F7089514
S1130090C1E018EDD1E003C014BFD09341008C2F10
S11100A0D2DFCF5FC430D9F7F7CFF894FFCF8B
S9030000FC
