S00D00004578424F442E7372656385
S113000019C028C028C026C025C024C023C022C0CF
S113001021C020C01FC01EC01DC01CC01BC01AC0F0
S113002019C018C017C016C015C014C013C012C020
S113003011C010C011241FBECFEFCDBFDFE3DEBF60
S11300402EE3A0E0BEE301C01D92A130B207E1F7A8
S113005013D02CC0D5CF1F920F920FB60F9211243C
S11300608F9381E08093003E80938A008F910F905C
S11300700FBE0F901F901895E0E8F0E083E08187B1
S113008081E08087E0E0F4E088E8818385837894E8
S113009098E08091003E8823E1F3978325ED38E0D2
S11300A082E0215030408040E1F7F3CFF894FFCF55
S9030000FC
