:1000000019C028C027C027C025C024C023C022C0D3
:1000100021C020C01FC01EC01DC01CC01BC01AC0F4
:1000200019C018C017C016C015C014C013C012C024
:1000300011C010C011241FBECFEFCDBFDFE3DEBF64
:100040002EE3A0E0BEE301C01D92A130B207E1F7AC
:1000500011D060C0D5CF1F920F920FB60F9211240E
:100060008F9384E0809309048F910F900FBE0F90BF
:100070001F90189588ED91E084BF9093610084BF34
:1000800090936000E0E6F0E0838180FDFDCFE0E149
:10009000F4E0808188608193E83184E0F807C9F753
:1000A000E0E0F4E088E0818384E082838BE0828B6F
:1000B000E0E5F0E08081897F8460808380818160D9
:1000C00080837894E0E0F4E048E020E045838FEF1F
:1000D00093E00197F1F700C0000046838FEF93E0B3
:1000E0000197F1F700C000002F5F3091003E622FB2
:1000F00070E0832F8F7090E0861797073CF73F5F83
:100100003093003E8FEF9FE00197F1F700C00000B1
:080110008895DBCFF894FFCFC6
:00000001FF
