:1000000019C020C01FC01EC01DC01CC01BC01AC00C
:1000100019C018C017C016C015C014C013C012C034
:1000200012C010C00FC00EC00DC00CC00BC00AC063
:1000300009C008C011241FBECFEFCDBFDFE3DEBF74
:1000400014D038C0DDCF1F920F920FB60F9211243B
:100050008F9388E08093070481E0809377068F91E7
:100060000F900FBE0F901F901895E0E0F4E0878985
:10007000887F8460878B8789877F878B82E08093E6
:10008000A000A0E7B6E097E09C9391E016969C93C1
:10009000169712968C9388E0818384E0818378940C
:1000A00087832AE634E091E0215030409040E1F728
:0800B00000C0F6CFF894FFCF69
:00000001FF
