S00D000045785744542E737265636B
S113000019C020C01FC01EC01DC01CC01BC01AC008
S113001019C018C017C016C015C014C013C012C030
S113002011C010C00FC00EC00DC00CC00BC00AC060
S113003009C008C011241FBECFEFCDBFDFE3DEBF70
S113004002D027C0DDCF99E088ED84BF90930001F2
S1130050E0E0F4E088E0818385832AE23CE28AE000
S1130060215030408040E1F7000088E086839AE226
S11300702CE23AE0915020403040E1F700008583C3
S11300809AE624E031E0915020403040E1F700C08E
S1090090EDCFF894FFCF50
S9030000FC
