:1000000019C028C027C026C025C024C023C022C0D4
:1000100021C020C01FC01EC01DC033C01BC01AC0DD
:1000200019C019C017C016C015C014C013C012C023
:1000300011C010C011241FBECFEFCDBFDFE3DEBF64
:100040002EE3A0E0BEE301C01D92A230B207E1F7AB
:100050004FD0A1C0D5CF1F920F920FB60F9211248F
:100060008F939F9380911006909111068093003E8C
:100070009093013E9F918F910F900FBE0F901F9014
:1000800018951F920F920FB60F9211248F9382E052
:10009000809307048FEF8093460A8F910F900FBED5
:1000A0000F901F90189598E090930104482F50E00E
:1000B000440F551F141615069CF490E0E0E0F4E0A0
:1000C00088E087832AE03BE862E0215030406040CE
:1000D000E1F700C09F5F292F30E0241735078CF32C
:1000E00085E196E125E0815090402040E1F70895B8
:1000F000A0E0B4E082E011968C931197E0E4FAE07E
:1001000080E593EC8487958781E08083858390E800
:1001100012969C93E0E0F6E08083828397E09683DA
:10012000818782879FEF9387E0E8F1E08287789468
:10013000838BCEE5D0E08091003E9091013EBE01E0
:1001400003D0862FB0DFF7CF97FB072E16F400946D
:1001500006D077FD08D00BD007FC05D03EF4909573
:1001600081959F4F0895709561957F4F0895AA1BC3
:10017000BB1B51E107C0AA1FBB1FA617B70710F092
:10018000A61BB70B881F991F5A95A9F780959095C4
:0A019000BC01CD010895F894FFCFE3
:00000001FF
