:1000000019C020C01FC01EC01DC01CC01BC01AC00C
:1000100019C018C017C016C015C014C013C012C034
:1000200011C010C00FC00EC00DC00CC00BC00AC064
:1000300009C008C011241FBECFEFCDBFDFE3DEBF74
:1000400002D029C0DDCF8FEF80932004E0E0FAE0FA
:1000500083E781838BE080838FEF90E086A397A373
:1000600040E0842F90E080A791A79C01220F331FCE
:10007000332722A733A7880F991F880F991F992725
:1000800084A795A725E580ED90E021508040904021
:0A009000E1F7405FE6CFF894FFCFE0
:00000001FF
