S0150000457855415254504F4C4C494E472E7372656301
S113000019C033C032C031C030C02FC02EC02DC083
S11300102CC02BC02AC029C028C027C026C025C098
S113002024C023C022C021C020C01FC01EC01DC0C8
S11300301CC01BC011241FBECFEFCDBFDFE3DEBF4A
S11300401EE3A0E0BEE3EAE2F1E002C005900D92F7
S1130050AE30B107D9F72EE3AEE0BEE301C01D9286
S1130060A431B207E1F702D05EC0CACFC0E0D4E049
S113007082E089838D8384E08A8318E01A8BE0E030
S1130080F2E08181816081831ED019832CD0C1E488
S113009000E014E0D8E0F801D7838C2F38D029D0C1
S11300A08823E9F32CD0C82F8D3011F0CF5F02C024
S11300B08AE02DD0FAE624E081E0F150204080402F
S11300C0E1F700C0E8CFE0E0F8E08CE695E0808757
S11300D0918780EC868380E09EE38093103E90932A
S11300E0113E80E00895E0E0F8E08681806C86832C
S11300F0089580910408881F8827881F0895E0E0E8
S1130100F8E084818823ECF7809100080895E0E00A
S1130110F8E0948195FFFDCF809302080895F7DFFE
S10D012080E090E00895F894FFCF0A
S111012A00000002000000008F000000000032
S9030000FC
