S00D000045785254432E7372656371
S113000019C020C01FC01EC01DC01CC01CC01AC007
S113001019C018C017C016C015C014C013C012C030
S113002011C010C00FC00EC00DC00CC00BC00AC060
S113003009C008C011241FBECFEFCDBFDFE3DEBF70
S113004014D028C0DDCF1F920F920FB60F92112447
S11300508F9388E08093070481E0809343018F911C
S11300600F900FBE0F901F90189588E080930104A5
S1130070E0E4F1E081818111FDCFE0E4F1E010865C
S1130080118680E090E48287938781E08283808375
S10B00907894FFCFF894FFCF30
S9030000FC
