:1000000019C033C032C031C030C02FC02EC02DC087
:100010002CC02BC02AC029C028C027C026C025C09C
:1000200024C023C022C021C020C01FC07DC0A5C0E5
:100030001CC01BC011241FBECFEFCDBFDFE3DEBF4E
:100040001EE3A0E0BEE3EEE9F2E002C005900D92EF
:10005000A231B107D9F72EE3A2E1BEE301C01D92A0
:10006000AE32B207E1F702D018C1CACFC0E0D4E087
:1000700082E089838E8384E08A838A89877F8A8B62
:10008000E0E0F2E0818181608183E3D088E08983D0
:100090007894FDD0C1E48C2FB9D098D08823E9F3AF
:1000A0009CD0C82F8D3019F48AE0B0D001C0CF5F4A
:1000B0002AE684E091E0215080409040E1F700C0C2
:1000C000EACF80910008E0911F3EEF5FE770E09378
:1000D0001F3E90911E3EF0E0E05EF14C80838091E7
:1000E0001D3E8F5F80931D3E08958091123E8823B0
:1000F00089F0E091133EEF5FE770E093133EF0E08C
:10010000EB5EF14C8081809302088091123E815019
:100110008093123E8091123E811105C0E0E0F8E02C
:1001200085818F7D858308951F920F920FB60F9260
:1001300011242F933F934F935F936F937F938F93EC
:100140009F93AF93BF93EF93FF93E091023EF091A3
:10015000033E309709F00995FF91EF91BF91AF9160
:100160009F918F917F916F915F914F913F912F91CF
:100170000F900FBE0F901F9018951F920F920FB601
:100180000F9211242F933F934F935F936F937F931D
:100190008F939F93AF93BF93EF93FF93E091003EB4
:1001A000F091013E309709F00995FF91EF91BF91D1
:1001B000AF919F918F917F916F915F914F913F91FF
:1001C0002F910F900FBE0F901F90189590911D3E8C
:1001D00081E0911101C080E0089580911D3E882347
:1001E000E1F3E0911E3EEF5FE770E0931E3E0FB635
:1001F000F8940F9280911D3E815080931D3E0F9088
:100200000FBEF0E0E05EF14C808108952091143E35
:100210002F5F27709091123E9830E1F3E22FF0E0CB
:10022000EB5EF14C80832093143E0FB6F8940F924E
:100230008091123E8F5F8093123E0F900FBEE0E0E0
:10024000F8E08581806285830895E0DF80E090E0BA
:100250000895E0E0F8E08DE695E08087918780E8FA
:10026000858380EC868310921E3E10921F3E109272
:100270001D3E1092133E1092143E1092123E84E0E6
:100280009EE380932A3E90932B3E80E00895E0E029
:0E029000F8E08681806C86830895F894FFCF95
:10029E007500610000000002000000002501000052
:0202AE0000004E
:00000001FF
